:020000020000FC
:020000002DC011
:10000C001197189502BE04E008BFA015B00529F0A1
:10001C00A89578948895F894F8CF08951BE0889467
:10002C0010F0B99801C0B99AA4E0B0E0EBDF0894E5
:10003C0027951A95A9F70895A8E4B0E0E3DF259178
:10004C00EDDF2591EBDF2591E9DF2591E7DF0895C1
:10005C0004B7002404BE0F70F9F307E601BF00E2F9
:10006C0005BF0FE90DBF479A0CEF08BB02E00FBDAF
:10007C0005E906BF02E003BF04E009BFA2E3B0E05C
:10008C00C1DFB99AA2E5B3E0BDDFB89AAEE0B0E04B
:10009C00B9DFEAEAF0E0D0DFCFDFCEDFFACF5343AF
:1000AC00454953434541534345456D2E642E2F58C6
:0800BC0044532C203230313096
:00000001FF
